{
  "transactions": [
    {
      "hash": "0x5ea381c8d31e86c2ad2c1962e95919be9429bee6cc4388b1f1256e32f47435f0",
      "transactionType": "CALL",
      "contractName": null,
      "contractAddress": "0xB4FBF271143F4FBf7B91A5ded31805e42b2208d6",
      "function": null,
      "arguments": null,
      "rpc": "http://localhost:8545",
      "transaction": {
        "type": "0x02",
        "from": "0x10b7fe3270b4d3196c4458ab3dc0d3b068da48d8",
        "to": "0xb4fbf271143f4fbf7b91a5ded31805e42b2208d6",
        "gas": "0x10174",
        "value": "0x8ac7230489e80000",
        "data": "0xd0e30db0",
        "nonce": "0x1b",
        "accessList": []
      },
      "additionalContracts": [],
      "isFixedGasLimit": false
    },
    {
      "hash": "0x0ee34f522d81b2ceb80f8ca3e4c8c73031c65d3073a8713df2fcfe53226cc034",
      "transactionType": "CALL",
      "contractName": null,
      "contractAddress": "0x7B4D29B29D8A03FB54A5053A493c3CCdAf76e898",
      "function": null,
      "arguments": null,
      "rpc": "http://localhost:8545",
      "transaction": {
        "type": "0x02",
        "from": "0x10b7fe3270b4d3196c4458ab3dc0d3b068da48d8",
        "to": "0x7b4d29b29d8a03fb54a5053a493c3ccdaf76e898",
        "gas": "0xcc40",
        "value": "0x0",
        "data": "0xc665670200000000000000000000000010b7fe3270b4d3196c4458ab3dc0d3b068da48d8",
        "nonce": "0x1c",
        "accessList": []
      },
      "additionalContracts": [],
      "isFixedGasLimit": false
    },
    {
      "hash": "0x7f42a29e501e52f91a8814d0248481091c690f262c0a31cfa49defdc8a54f493",
      "transactionType": "CALL",
      "contractName": null,
      "contractAddress": "0x7B4D29B29D8A03FB54A5053A493c3CCdAf76e898",
      "function": null,
      "arguments": null,
      "rpc": "http://localhost:8545",
      "transaction": {
        "type": "0x02",
        "from": "0x10b7fe3270b4d3196c4458ab3dc0d3b068da48d8",
        "to": "0x7b4d29b29d8a03fb54a5053a493c3ccdaf76e898",
        "gas": "0x14006",
        "value": "0x0",
        "data": "0x5de08ff20000000000000000000000000000000000000000000000000000000000000020000000000000000000000000000000000000000000000000000000000000000100000000000000000000000039f1f2c81a879f1514e98eb79c1e02be8231b1c2",
        "nonce": "0x1d",
        "accessList": []
      },
      "additionalContracts": [],
      "isFixedGasLimit": false
    },
    {
      "hash": "0xdbf983671effe2c1ca662240d62c15a7964f5dd65a1e636a03193e59f9aea9b1",
      "transactionType": "CALL",
      "contractName": null,
      "contractAddress": "0xB4FBF271143F4FBf7B91A5ded31805e42b2208d6",
      "function": null,
      "arguments": null,
      "rpc": "http://localhost:8545",
      "transaction": {
        "type": "0x02",
        "from": "0x10b7fe3270b4d3196c4458ab3dc0d3b068da48d8",
        "to": "0xb4fbf271143f4fbf7b91a5ded31805e42b2208d6",
        "gas": "0xf8eb",
        "value": "0x0",
        "data": "0x095ea7b30000000000000000000000007b4d29b29d8a03fb54a5053a493c3ccdaf76e898000000000000000000000000000000000000000c9f2c9cd04674edea40000000",
        "nonce": "0x1e",
        "accessList": []
      },
      "additionalContracts": [],
      "isFixedGasLimit": false
    },
    {
      "hash": "0x0db5945090a0a90d788a03ee1abe8d5bb80d6f0a5e7ffce348432b8850464314",
      "transactionType": "CALL",
      "contractName": null,
      "contractAddress": "0x7B4D29B29D8A03FB54A5053A493c3CCdAf76e898",
      "function": null,
      "arguments": null,
      "rpc": "http://localhost:8545",
      "transaction": {
        "type": "0x02",
        "from": "0x10b7fe3270b4d3196c4458ab3dc0d3b068da48d8",
        "to": "0x7b4d29b29d8a03fb54a5053a493c3ccdaf76e898",
        "gas": "0x4dfc2",
        "value": "0x0",
        "data": "0xe7a050aa00000000000000000000000039f1f2c81a879f1514e98eb79c1e02be8231b1c2000000000000000000000000b4fbf271143f4fbf7b91a5ded31805e42b2208d60000000000000000000000000000000000000000000000000de0b6b3a7640000",
        "nonce": "0x1f",
        "accessList": []
      },
      "additionalContracts": [],
      "isFixedGasLimit": false
    },
    {
      "hash": "0x59bb23695a6f80177fc7770a8fb4297607e5126aeca6b2f00c7f0a09e0067400",
      "transactionType": "CALL",
      "contractName": null,
      "contractAddress": "0x5E86E1155eD040542bC5551525E5526D21D61A23",
      "function": null,
      "arguments": null,
      "rpc": "http://localhost:8545",
      "transaction": {
        "type": "0x02",
        "from": "0x10b7fe3270b4d3196c4458ab3dc0d3b068da48d8",
        "to": "0x5e86e1155ed040542bc5551525e5526d21d61a23",
        "gas": "0xd9d6",
        "value": "0x0",
        "data": "0xfabc1cbc0000000000000000000000000000000000000000000000000000000000000000",
        "nonce": "0x20",
        "accessList": []
      },
      "additionalContracts": [],
      "isFixedGasLimit": false
    },
    {
      "hash": "0xf416e9ac38194d9691246e04a02c9ebfd5a7e4bf8f5c43e56025568fcd13a74e",
      "transactionType": "CALL",
      "contractName": null,
      "contractAddress": "0x5E86E1155eD040542bC5551525E5526D21D61A23",
      "function": null,
      "arguments": null,
      "rpc": "http://localhost:8545",
      "transaction": {
        "type": "0x02",
        "from": "0x10b7fe3270b4d3196c4458ab3dc0d3b068da48d8",
        "to": "0x5e86e1155ed040542bc5551525e5526d21d61a23",
        "gas": "0x302c9",
        "value": "0x0",
        "data": "0xbd44e40300000000000000000000000010b7fe3270b4d3196c4458ab3dc0d3b068da48d8",
        "nonce": "0x21",
        "accessList": []
      },
      "additionalContracts": [],
      "isFixedGasLimit": false
    },
    {
      "hash": "0x03a6abe2668a46f0c4c88fb512deb238c8cf7dc5c0bcf5327ac5ae0d67843165",
      "transactionType": "CREATE",
      "contractName": "LagrangeService",
      "contractAddress": "0x09d9F7ff8AcC7C7a56Da90227de26fD00a208B93",
      "function": null,
      "arguments": [
        "0x7Fd233Ca513E9a92628F69dbD0eee033788C432b"
      ],
      "rpc": "http://localhost:8545",
      "transaction": {
        "type": "0x02",
        "from": "0x10b7fe3270b4d3196c4458ab3dc0d3b068da48d8",
        "gas": "0x99918",
        "value": "0x0",
        "data": "0x60a0604052600280546001600160401b031916905534801561002057600080fd5b5060405161085f38038061085f83398101604081905261003f916100a9565b61004833610059565b6001600160a01b03166080526100d9565b600080546001600160a01b038381166001600160a01b0319831681178455604051919092169283917f8be0079c531659141344cd1fd0a4f28419497f9722a3daafe3b4186f6b6457e09190a35050565b6000602082840312156100bb57600080fd5b81516001600160a01b03811681146100d257600080fd5b9392505050565b6080516107486101176000396000818161018e01528181610224015281816102df0152818161038c01528181610410015261052c01526107486000f3fe608060405234801561001057600080fd5b50600436106100b45760003560e01c8063758f8dba11610071578063758f8dba1461014c5780638da5cb5b14610164578063b134427114610189578063c747075b146101b0578063e5839836146101c3578063f2fde38b146101e657600080fd5b80630ffabbce146100b9578063130d7906146100ce57806313e7c9d8146100e157806338c8ee6414610121578063715018a61461013457806372d18e8d1461013c575b600080fd5b6100cc6100c7366004610635565b6101f9565b005b6100cc6100dc366004610668565b610285565b6101076100ef36600461068a565b60016020526000908152604090205463ffffffff1681565b60405163ffffffff90911681526020015b60405180910390f35b6100cc61012f36600461068a565b6102b8565b6100cc61033e565b6002546101079063ffffffff1681565b60025461010790640100000000900463ffffffff1681565b6000546001600160a01b03165b6040516001600160a01b039091168152602001610118565b6101717f000000000000000000000000000000000000000000000000000000000000000081565b6100cc6101be3660046106a5565b610352565b6101d66101d136600461068a565b6103ee565b6040519015158152602001610118565b6100cc6101f436600461068a565b610483565b6040516307fd5de760e11b81526001600160a01b03838116600483015263ffffffff831660248301527f00000000000000000000000000000000000000000000000000000000000000001690630ffabbce906044015b600060405180830381600087803b15801561026957600080fd5b505af115801561027d573d6000803e3d6000fd5b505050505050565b61028f3382610501565b336000908152600160205260409020805463ffffffff191663ffffffff92909216919091179055565b6102c061055b565b604051630e323b9960e21b81526001600160a01b0382811660048301527f000000000000000000000000000000000000000000000000000000000000000016906338c8ee6490602401600060405180830381600087803b15801561032357600080fd5b505af1158015610337573d6000803e3d6000fd5b5050505050565b61034661055b565b61035060006105b5565b565b60405163c747075b60e01b81526001600160a01b03858116600483015263ffffffff808616602484015284166044830152606482018390527f0000000000000000000000000000000000000000000000000000000000000000169063c747075b90608401600060405180830381600087803b1580156103d057600080fd5b505af11580156103e4573d6000803e3d6000fd5b5050505050505050565b6040516372c1cc1b60e11b81526001600160a01b0382811660048301526000917f00000000000000000000000000000000000000000000000000000000000000009091169063e583983690602401602060405180830381865afa158015610459573d6000803e3d6000fd5b505050506040513d601f19601f8201168201806040525081019061047d91906106f0565b92915050565b61048b61055b565b6001600160a01b0381166104f55760405162461bcd60e51b815260206004820152602660248201527f4f776e61626c653a206e6577206f776e657220697320746865207a65726f206160448201526564647265737360d01b60648201526084015b60405180910390fd5b6104fe816105b5565b50565b60405163175d320560e01b81526001600160a01b03838116600483015263ffffffff831660248301527f0000000000000000000000000000000000000000000000000000000000000000169063175d32059060440161024f565b6000546001600160a01b031633146103505760405162461bcd60e51b815260206004820181905260248201527f4f776e61626c653a2063616c6c6572206973206e6f7420746865206f776e657260448201526064016104ec565b600080546001600160a01b038381166001600160a01b0319831681178455604051919092169283917f8be0079c531659141344cd1fd0a4f28419497f9722a3daafe3b4186f6b6457e09190a35050565b80356001600160a01b038116811461061c57600080fd5b919050565b803563ffffffff8116811461061c57600080fd5b6000806040838503121561064857600080fd5b61065183610605565b915061065f60208401610621565b90509250929050565b60006020828403121561067a57600080fd5b61068382610621565b9392505050565b60006020828403121561069c57600080fd5b61068382610605565b600080600080608085870312156106bb57600080fd5b6106c485610605565b93506106d260208601610621565b92506106e060408601610621565b9396929550929360600135925050565b60006020828403121561070257600080fd5b8151801515811461068357600080fdfea2646970667358221220892daab83ee815e7b001f73ab360bde715a08423c3bf8f698991a17ee0ae045864736f6c634300080c00330000000000000000000000007fd233ca513e9a92628f69dbd0eee033788c432b",
        "nonce": "0x22",
        "accessList": []
      },
      "additionalContracts": [],
      "isFixedGasLimit": false
    },
    {
      "hash": "0x037bc947a352490fbe5d810a78ba286d3b4d60c2a717b7480161f5362d091def",
      "transactionType": "CALL",
      "contractName": null,
      "contractAddress": "0x7Fd233Ca513E9a92628F69dbD0eee033788C432b",
      "function": null,
      "arguments": null,
      "rpc": "http://localhost:8545",
      "transaction": {
        "type": "0x02",
        "from": "0x10b7fe3270b4d3196c4458ab3dc0d3b068da48d8",
        "to": "0x7fd233ca513e9a92628f69dbd0eee033788c432b",
        "gas": "0xd9d6",
        "value": "0x0",
        "data": "0xfabc1cbc0000000000000000000000000000000000000000000000000000000000000000",
        "nonce": "0x23",
        "accessList": []
      },
      "additionalContracts": [],
      "isFixedGasLimit": false
    },
    {
      "hash": "0xefb279eb9859fb21aa148044ab9ed2da52c893c63d00f38a997387b07b4763ca",
      "transactionType": "CALL",
      "contractName": null,
      "contractAddress": "0x7Fd233Ca513E9a92628F69dbD0eee033788C432b",
      "function": null,
      "arguments": null,
      "rpc": "http://localhost:8545",
      "transaction": {
        "type": "0x02",
        "from": "0x10b7fe3270b4d3196c4458ab3dc0d3b068da48d8",
        "to": "0x7fd233ca513e9a92628f69dbd0eee033788c432b",
        "gas": "0x16e97",
        "value": "0x0",
        "data": "0xf73b751900000000000000000000000009d9f7ff8acc7c7a56da90227de26fd00a208b93",
        "nonce": "0x24",
        "accessList": []
      },
      "additionalContracts": [],
      "isFixedGasLimit": false
    },
    {
      "hash": "0x6db5cc4f6df57ade93dae0bd22b67e27e6e029e5c8e706c5b76e93258d226a07",
      "transactionType": "CALL",
      "contractName": "LagrangeService",
      "contractAddress": "0x09d9F7ff8AcC7C7a56Da90227de26fD00a208B93",
      "function": "register(uint32)",
      "arguments": [
        "4294967295"
      ],
      "rpc": "http://localhost:8545",
      "transaction": {
        "type": "0x02",
        "from": "0x10b7fe3270b4d3196c4458ab3dc0d3b068da48d8",
        "to": "0x09d9f7ff8acc7c7a56da90227de26fd00a208b93",
        "gas": "0x3dbab",
        "value": "0x0",
        "data": "0x130d790600000000000000000000000000000000000000000000000000000000ffffffff",
        "nonce": "0x25",
        "accessList": []
      },
      "additionalContracts": [],
      "isFixedGasLimit": false
    }
  ],
  "receipts": [
    {
      "transactionHash": "0x5ea381c8d31e86c2ad2c1962e95919be9429bee6cc4388b1f1256e32f47435f0",
      "transactionIndex": "0x0",
      "blockHash": "0x9cd0bd40d4cb9038b16939d6ab4b7752db64fa170731c14fb7b692e25c457288",
      "blockNumber": "0x8800de",
      "from": "0x10B7fE3270b4D3196c4458AB3dc0D3B068DA48d8",
      "to": "0xB4FBF271143F4FBf7B91A5ded31805e42b2208d6",
      "cumulativeGasUsed": "0xb00a",
      "gasUsed": "0xb00a",
      "contractAddress": null,
      "logs": [
        {
          "address": "0xB4FBF271143F4FBf7B91A5ded31805e42b2208d6",
          "topics": [
            "0xe1fffcc4923d04b559f4d29a8bfc6cda04eb5b0d3c460751c2402c5c5cc9109c",
            "0x00000000000000000000000010b7fe3270b4d3196c4458ab3dc0d3b068da48d8"
          ],
          "data": "0x0000000000000000000000000000000000000000000000008ac7230489e80000",
          "blockHash": "0x9cd0bd40d4cb9038b16939d6ab4b7752db64fa170731c14fb7b692e25c457288",
          "blockNumber": "0x8800de",
          "transactionHash": "0x5ea381c8d31e86c2ad2c1962e95919be9429bee6cc4388b1f1256e32f47435f0",
          "transactionIndex": "0x0",
          "logIndex": "0x0",
          "removed": false
        }
      ],
      "status": "0x1",
      "logsBloom": "0x0000000000000000000000000000000000000000000000000000000000002000000000000000000000000000200000000000000000000000000002000000000000000000040000000000000000000000000000000000000000000000800000000000000000000000000000000000000000000000000000000000000000000000000000000000000000000000000000000000000100000000000000000000000000000000000000000000000000000000000000000000000000000000000000000000c000000000000000000000000000000000000000000000000000000000000000000000000000000000000000000000000000000000400000000000000000",
      "type": "0x2",
      "effectiveGasPrice": "0xb34b80f2"
    },
    {
      "transactionHash": "0x0ee34f522d81b2ceb80f8ca3e4c8c73031c65d3073a8713df2fcfe53226cc034",
      "transactionIndex": "0x0",
      "blockHash": "0x4190bbcdf46f500dfcecf5591a17d5a264ddf1cd76589c7da9a27a0762c2aa4e",
      "blockNumber": "0x8800df",
      "from": "0x10B7fE3270b4D3196c4458AB3dc0D3B068DA48d8",
      "to": "0x7B4D29B29D8A03FB54A5053A493c3CCdAf76e898",
      "cumulativeGasUsed": "0x93e0",
      "gasUsed": "0x93e0",
      "contractAddress": null,
      "logs": [
        {
          "address": "0x7B4D29B29D8A03FB54A5053A493c3CCdAf76e898",
          "topics": [
            "0x4264275e593955ff9d6146a51a4525f6ddace2e81db9391abcc9d1ca48047d29"
          ],
          "data": "0x000000000000000000000000040353e9d057689b77df275c07ffe1a46b98a4a600000000000000000000000010b7fe3270b4d3196c4458ab3dc0d3b068da48d8",
          "blockHash": "0x4190bbcdf46f500dfcecf5591a17d5a264ddf1cd76589c7da9a27a0762c2aa4e",
          "blockNumber": "0x8800df",
          "transactionHash": "0x0ee34f522d81b2ceb80f8ca3e4c8c73031c65d3073a8713df2fcfe53226cc034",
          "transactionIndex": "0x0",
          "logIndex": "0x0",
          "removed": false
        }
      ],
      "status": "0x1",
      "logsBloom": "0x00000000000000000000000000000000000000000000000000000000000000000000000000000000000000000000000000000000000000000000400000000000000000000000000000000000000000000000000000000000000000000000000000000000000000000000000000000000000000000000000000000000000000000000000000000000000000002000008000000000000000000000000000000000000000000000000000000000000000000000000000000008000000000000000000100000000000000000000000020000000000000000000000000000000000000000000000000000000000000000000000000000000000000000000000000000",
      "type": "0x2",
      "effectiveGasPrice": "0xb33c286b"
    },
    {
      "transactionHash": "0x7f42a29e501e52f91a8814d0248481091c690f262c0a31cfa49defdc8a54f493",
      "transactionIndex": "0x0",
      "blockHash": "0x895a57c7eb24652ac01121aff1c4990e1e56783a6d10ce7566f04724d53262ca",
      "blockNumber": "0x8800e0",
      "from": "0x10B7fE3270b4D3196c4458AB3dc0D3B068DA48d8",
      "to": "0x7B4D29B29D8A03FB54A5053A493c3CCdAf76e898",
      "cumulativeGasUsed": "0xdad2",
      "gasUsed": "0xdad2",
      "contractAddress": null,
      "logs": [
        {
          "address": "0x7B4D29B29D8A03FB54A5053A493c3CCdAf76e898",
          "topics": [
            "0x0c35b17d91c96eb2751cd456e1252f42a386e524ef9ff26ecc9950859fdc04fe"
          ],
          "data": "0x00000000000000000000000039f1f2c81a879f1514e98eb79c1e02be8231b1c2",
          "blockHash": "0x895a57c7eb24652ac01121aff1c4990e1e56783a6d10ce7566f04724d53262ca",
          "blockNumber": "0x8800e0",
          "transactionHash": "0x7f42a29e501e52f91a8814d0248481091c690f262c0a31cfa49defdc8a54f493",
          "transactionIndex": "0x0",
          "logIndex": "0x0",
          "removed": false
        }
      ],
      "status": "0x1",
      "logsBloom": "0x00000000000000000000000000000000000000000000000000000000000000000000000000000000002000000000000000000000000000000000000000000000000000000000000000000000000000000000000000000000000000000000000000000000000000000000002000000000000000000000000000000000000000000000000000000000000000002000008000000000000100000000000000000000000000000000000000000000000000000000000000000000000000000000000000000000000000000000000000020000000000000000000000000000000000000000000000000000000000000000000000000000000000000000000000000000",
      "type": "0x2",
      "effectiveGasPrice": "0xb32eb7d3"
    },
    {
      "transactionHash": "0xdbf983671effe2c1ca662240d62c15a7964f5dd65a1e636a03193e59f9aea9b1",
      "transactionIndex": "0x0",
      "blockHash": "0xfb53970b257cfabf8221e92cc004a28dd3f83b1e5bd469e57ee6531eba40e799",
      "blockNumber": "0x8800e1",
      "from": "0x10B7fE3270b4D3196c4458AB3dc0D3B068DA48d8",
      "to": "0xB4FBF271143F4FBf7B91A5ded31805e42b2208d6",
      "cumulativeGasUsed": "0xb437",
      "gasUsed": "0xb437",
      "contractAddress": null,
      "logs": [
        {
          "address": "0xB4FBF271143F4FBf7B91A5ded31805e42b2208d6",
          "topics": [
            "0x8c5be1e5ebec7d5bd14f71427d1e84f3dd0314c0f7b2291e5b200ac8c7c3b925",
            "0x00000000000000000000000010b7fe3270b4d3196c4458ab3dc0d3b068da48d8",
            "0x0000000000000000000000007b4d29b29d8a03fb54a5053a493c3ccdaf76e898"
          ],
          "data": "0x000000000000000000000000000000000000000c9f2c9cd04674edea40000000",
          "blockHash": "0xfb53970b257cfabf8221e92cc004a28dd3f83b1e5bd469e57ee6531eba40e799",
          "blockNumber": "0x8800e1",
          "transactionHash": "0xdbf983671effe2c1ca662240d62c15a7964f5dd65a1e636a03193e59f9aea9b1",
          "transactionIndex": "0x0",
          "logIndex": "0x0",
          "removed": false
        }
      ],
      "status": "0x1",
      "logsBloom": "0x0000000000000000000000000000000000000000000000000000000000002000000000000000000000000000200000000000200000000000000002000020000000000000040000000000000000000000000000000000000000000000000000000000000000000000000000000000000000000000000000000000000000000000000000000000000000000000000000000000000000000000000000000000000002000000000000000000000000000000000000000000000000000000000000000000c000000000000000000000000000000000000000000200000000000000000010000000000000040000000000000000000000000000000000000000000000",
      "type": "0x2",
      "effectiveGasPrice": "0xb322f7e0"
    },
    {
      "transactionHash": "0x0db5945090a0a90d788a03ee1abe8d5bb80d6f0a5e7ffce348432b8850464314",
      "transactionIndex": "0x0",
      "blockHash": "0x25fb7dc73f8da95797948debe593b960a442ee2659cdb56c26e145cc8f0ed98b",
      "blockNumber": "0x8800e2",
      "from": "0x10B7fE3270b4D3196c4458AB3dc0D3B068DA48d8",
      "to": "0x7B4D29B29D8A03FB54A5053A493c3CCdAf76e898",
      "cumulativeGasUsed": "0x3875c",
      "gasUsed": "0x3875c",
      "contractAddress": null,
      "logs": [
        {
          "address": "0xB4FBF271143F4FBf7B91A5ded31805e42b2208d6",
          "topics": [
            "0xddf252ad1be2c89b69c2b068fc378daa952ba7f163c4a11628f55a4df523b3ef",
            "0x00000000000000000000000010b7fe3270b4d3196c4458ab3dc0d3b068da48d8",
            "0x00000000000000000000000039f1f2c81a879f1514e98eb79c1e02be8231b1c2"
          ],
          "data": "0x0000000000000000000000000000000000000000000000000de0b6b3a7640000",
          "blockHash": "0x25fb7dc73f8da95797948debe593b960a442ee2659cdb56c26e145cc8f0ed98b",
          "blockNumber": "0x8800e2",
          "transactionHash": "0x0db5945090a0a90d788a03ee1abe8d5bb80d6f0a5e7ffce348432b8850464314",
          "transactionIndex": "0x0",
          "logIndex": "0x0",
          "removed": false
        },
        {
          "address": "0x7B4D29B29D8A03FB54A5053A493c3CCdAf76e898",
          "topics": [
            "0x7cfff908a4b583f36430b25d75964c458d8ede8a99bd61be750e97ee1b2f3a96"
          ],
          "data": "0x00000000000000000000000010b7fe3270b4d3196c4458ab3dc0d3b068da48d8000000000000000000000000b4fbf271143f4fbf7b91a5ded31805e42b2208d600000000000000000000000039f1f2c81a879f1514e98eb79c1e02be8231b1c20000000000000000000000000000000000000000000000000de0b6b3a7640000",
          "blockHash": "0x25fb7dc73f8da95797948debe593b960a442ee2659cdb56c26e145cc8f0ed98b",
          "blockNumber": "0x8800e2",
          "transactionHash": "0x0db5945090a0a90d788a03ee1abe8d5bb80d6f0a5e7ffce348432b8850464314",
          "transactionIndex": "0x0",
          "logIndex": "0x1",
          "removed": false
        }
      ],
      "status": "0x1",
      "logsBloom": "0x0000000000000000000000000000000400000000000000000000000000002000000000000000000000000000200000000000001000000000000002000000000000000000040000000000000800000000000000000000000000000000000000000000000000000000000000000000000000000000000000000400001000000000000000000000000000000000200000800000000000000000000000000000000000000000000000000000100000000000000000000000000000000000000000001000c002000000000000000000020000000000000000000000000200000000000000000000000000000000000000000000000000000000000000000000000000",
      "type": "0x2",
      "effectiveGasPrice": "0xb318acc6"
    },
    {
      "transactionHash": "0x59bb23695a6f80177fc7770a8fb4297607e5126aeca6b2f00c7f0a09e0067400",
      "transactionIndex": "0x0",
      "blockHash": "0xb9ba5b7bbce0d5d303222a7d9cf2563f514c1154f2aaac2f6130fc02759c8052",
      "blockNumber": "0x8800e3",
      "from": "0x10B7fE3270b4D3196c4458AB3dc0D3B068DA48d8",
      "to": "0x5E86E1155eD040542bC5551525E5526D21D61A23",
      "cumulativeGasUsed": "0x94f3",
      "gasUsed": "0x94f3",
      "contractAddress": null,
      "logs": [
        {
          "address": "0x5E86E1155eD040542bC5551525E5526D21D61A23",
          "topics": [
            "0x3582d1828e26bf56bd801502bc021ac0bc8afb57c826e4986b45593c8fad389c",
            "0x00000000000000000000000010b7fe3270b4d3196c4458ab3dc0d3b068da48d8"
          ],
          "data": "0x0000000000000000000000000000000000000000000000000000000000000000",
          "blockHash": "0xb9ba5b7bbce0d5d303222a7d9cf2563f514c1154f2aaac2f6130fc02759c8052",
          "blockNumber": "0x8800e3",
          "transactionHash": "0x59bb23695a6f80177fc7770a8fb4297607e5126aeca6b2f00c7f0a09e0067400",
          "transactionIndex": "0x0",
          "logIndex": "0x0",
          "removed": false
        }
      ],
      "status": "0x1",
      "logsBloom": "0x00000000000000000000000000000000000000000000000000000000000020000000000000000000000000002000000000000000000000000000000000000000000000000000000000800000000000000000000000000000000000000000000000000000000000000000000000000000000000000000000400000000000000000000008000000000200000020000000000000000008000000000000000000000000000000000000000000000000000000000000000000000000000000000000000008000000000000000000000000000000000000000000000000000000000000000000000000000000000000000000000000000000000000000000000000000",
      "type": "0x2",
      "effectiveGasPrice": "0xb30fc69a"
    },
    {
      "transactionHash": "0xf416e9ac38194d9691246e04a02c9ebfd5a7e4bf8f5c43e56025568fcd13a74e",
      "transactionIndex": "0x0",
      "blockHash": "0x171cd6dd8f4608cf7befc5da692dec9d17a522f9bfe2ebc19234873d3c9a5268",
      "blockNumber": "0x8800e4",
      "from": "0x10B7fE3270b4D3196c4458AB3dc0D3B068DA48d8",
      "to": "0x5E86E1155eD040542bC5551525E5526D21D61A23",
      "cumulativeGasUsed": "0x20f09",
      "gasUsed": "0x20f09",
      "contractAddress": null,
      "logs": [],
      "status": "0x1",
      "logsBloom": "0x00000000000000000000000000000000000000000000000000000000000000000000000000000000000000000000000000000000000000000000000000000000000000000000000000000000000000000000000000000000000000000000000000000000000000000000000000000000000000000000000000000000000000000000000000000000000000000000000000000000000000000000000000000000000000000000000000000000000000000000000000000000000000000000000000000000000000000000000000000000000000000000000000000000000000000000000000000000000000000000000000000000000000000000000000000000",
      "type": "0x2",
      "effectiveGasPrice": "0xb307deb0"
    },
    {
      "transactionHash": "0x03a6abe2668a46f0c4c88fb512deb238c8cf7dc5c0bcf5327ac5ae0d67843165",
      "transactionIndex": "0x0",
      "blockHash": "0x87c95e12f226979e81bf74f38dce1edb645134e00ce14723f93516b124bc516b",
      "blockNumber": "0x8800e5",
      "from": "0x10B7fE3270b4D3196c4458AB3dc0D3B068DA48d8",
      "to": null,
      "cumulativeGasUsed": "0x7629b",
      "gasUsed": "0x7629b",
      "contractAddress": "0x09d9F7ff8AcC7C7a56Da90227de26fD00a208B93",
      "logs": [
        {
          "address": "0x09d9F7ff8AcC7C7a56Da90227de26fD00a208B93",
          "topics": [
            "0x8be0079c531659141344cd1fd0a4f28419497f9722a3daafe3b4186f6b6457e0",
            "0x0000000000000000000000000000000000000000000000000000000000000000",
            "0x00000000000000000000000010b7fe3270b4d3196c4458ab3dc0d3b068da48d8"
          ],
          "data": "0x",
          "blockHash": "0x87c95e12f226979e81bf74f38dce1edb645134e00ce14723f93516b124bc516b",
          "blockNumber": "0x8800e5",
          "transactionHash": "0x03a6abe2668a46f0c4c88fb512deb238c8cf7dc5c0bcf5327ac5ae0d67843165",
          "transactionIndex": "0x0",
          "logIndex": "0x0",
          "removed": false
        }
      ],
      "status": "0x1",
      "logsBloom": "0x00000000000000010000000000000000000000000000000000800000000020000000000000000000000000002000000000000000000000000000000000000000000000000000000000000000000000000001000000000000000000000000000000000000020000000000000000000800000000000000000000000000000000400000000000000000000000000000000000000001000000000000000000000000000000000000000000000000000000000000000000000000000000000000000000008000000000000000000000000000000000000400000000000000000020000000000000000000000000000000000000000000000000000000000000000000",
      "type": "0x2",
      "effectiveGasPrice": "0xb300fe94"
    },
    {
      "transactionHash": "0x037bc947a352490fbe5d810a78ba286d3b4d60c2a717b7480161f5362d091def",
      "transactionIndex": "0x0",
      "blockHash": "0xcdd4f447d284e2f8cda60e6f3109336fbb83096ac69793e2a08f253762396a5a",
      "blockNumber": "0x8800e6",
      "from": "0x10B7fE3270b4D3196c4458AB3dc0D3B068DA48d8",
      "to": "0x7Fd233Ca513E9a92628F69dbD0eee033788C432b",
      "cumulativeGasUsed": "0x94f3",
      "gasUsed": "0x94f3",
      "contractAddress": null,
      "logs": [
        {
          "address": "0x7Fd233Ca513E9a92628F69dbD0eee033788C432b",
          "topics": [
            "0x3582d1828e26bf56bd801502bc021ac0bc8afb57c826e4986b45593c8fad389c",
            "0x00000000000000000000000010b7fe3270b4d3196c4458ab3dc0d3b068da48d8"
          ],
          "data": "0x0000000000000000000000000000000000000000000000000000000000000000",
          "blockHash": "0xcdd4f447d284e2f8cda60e6f3109336fbb83096ac69793e2a08f253762396a5a",
          "blockNumber": "0x8800e6",
          "transactionHash": "0x037bc947a352490fbe5d810a78ba286d3b4d60c2a717b7480161f5362d091def",
          "transactionIndex": "0x0",
          "logIndex": "0x0",
          "removed": false
        }
      ],
      "status": "0x1",
      "logsBloom": "0x00000000000000000000000000000000000000000000000000000000000020000000000000000000000000002000000000000000000000000000000000400000000000000000000000000000000000000000000000000000000000000000010000000000000000000000000000000000000000000000000400000000000000000000000000000000000000020000000000000000008000000000000000000000000000000000000000000000000000000000000000000000000000000000000000008000000000000000000000000000000000000000000000000000000000000000000000000000000040000000000000000000000000000000000000000000",
      "type": "0x2",
      "effectiveGasPrice": "0xb2fb1cb7"
    },
    {
      "transactionHash": "0xefb279eb9859fb21aa148044ab9ed2da52c893c63d00f38a997387b07b4763ca",
      "transactionIndex": "0x0",
      "blockHash": "0x8dd7f229df08088887e6eee26fe08bbad6fe678707eda353062750c472b03829",
      "blockNumber": "0x8800e7",
      "from": "0x10B7fE3270b4D3196c4458AB3dc0D3B068DA48d8",
      "to": "0x7Fd233Ca513E9a92628F69dbD0eee033788C432b",
      "cumulativeGasUsed": "0x10968",
      "gasUsed": "0x10968",
      "contractAddress": null,
      "logs": [
        {
          "address": "0x7Fd233Ca513E9a92628F69dbD0eee033788C432b",
          "topics": [
            "0xefa9fb38e813d53c15edf501e03852843a3fed691960523391d71a092b3627d8",
            "0x00000000000000000000000010b7fe3270b4d3196c4458ab3dc0d3b068da48d8",
            "0x00000000000000000000000009d9f7ff8acc7c7a56da90227de26fd00a208b93"
          ],
          "data": "0x",
          "blockHash": "0x8dd7f229df08088887e6eee26fe08bbad6fe678707eda353062750c472b03829",
          "blockNumber": "0x8800e7",
          "transactionHash": "0xefb279eb9859fb21aa148044ab9ed2da52c893c63d00f38a997387b07b4763ca",
          "transactionIndex": "0x0",
          "logIndex": "0x0",
          "removed": false
        }
      ],
      "status": "0x1",
      "logsBloom": "0x00000000000000000000000000000000000000000000000000000000000020000000000000000000000000002000000000000000000000000000000000402000000000200000000000000000000000000000000000000000000000000000010001000000000000000000000000000000000000000000000000000000000000000000000000000000000000000000000000000000000000000000000000000000000000000000000000000000000000000000000000000000000000000000000000008000000000000008000000000000000000000000000000000000000000000000000000000000000040000000000000040000000000000000000000002000",
      "type": "0x2",
      "effectiveGasPrice": "0xb2f5c85b"
    },
    {
      "transactionHash": "0x6db5cc4f6df57ade93dae0bd22b67e27e6e029e5c8e706c5b76e93258d226a07",
      "transactionIndex": "0x0",
      "blockHash": "0xe25d13f28b7de16bc60891dd256dcbf9841c0f114665d2816906a31ad5219ee2",
      "blockNumber": "0x8800e8",
      "from": "0x10B7fE3270b4D3196c4458AB3dc0D3B068DA48d8",
      "to": "0x09d9F7ff8AcC7C7a56Da90227de26fD00a208B93",
      "cumulativeGasUsed": "0x2cb0f",
      "gasUsed": "0x2cb0f",
      "contractAddress": null,
      "logs": [
        {
          "address": "0x7Fd233Ca513E9a92628F69dbD0eee033788C432b",
          "topics": [
            "0x1b62ba64c72d01e41a2b8c46e6aeeff728ef3a4438cf1cac3d92ee12189d5649"
          ],
          "data": "0x00000000000000000000000010b7fe3270b4d3196c4458ab3dc0d3b068da48d8000000000000000000000000000000000000000000000000000000000000000000000000000000000000000000000000000000000000000000000000008800e800000000000000000000000000000000000000000000000000000000ffffffff",
          "blockHash": "0xe25d13f28b7de16bc60891dd256dcbf9841c0f114665d2816906a31ad5219ee2",
          "blockNumber": "0x8800e8",
          "transactionHash": "0x6db5cc4f6df57ade93dae0bd22b67e27e6e029e5c8e706c5b76e93258d226a07",
          "transactionIndex": "0x0",
          "logIndex": "0x0",
          "removed": false
        }
      ],
      "status": "0x1",
      "logsBloom": "0x00000000000000000002000000000000000000000000000000000000000000000000000000000000000000000000000000000000000000000000000000400000000000000000000000000000000000000000000000000000000000000000010000000000000000000000000000000000000000000000000000000000000000000000000000000000000000000000000000000000000000000000000000000000000000000000000000000000000000000000000000000000000000000020000000000000000000000000000000000000000000000000000000000000000000040000000000000000000040000000000000000000000000000000000000000000",
      "type": "0x2",
      "effectiveGasPrice": "0xb2f1207c"
    }
  ],
  "libraries": [],
  "pending": [],
  "path": "/home/ubuntu/lagrange-contracts/broadcast/RegisterOperator.s.sol/1337/run-latest.json",
  "returns": {},
  "timestamp": 1682797667,
  "chain": 1337,
  "multi": false,
  "commit": "d3ac94a"
}